{
  "contractName": "EasyPropertyDeals",
  "abi": [
    {
      "anonymous": false,
      "inputs": [
        {
          "indexed": false,
          "internalType": "uint256",
          "name": "propertyId",
          "type": "uint256"
        },
        {
          "indexed": false,
          "internalType": "uint256",
          "name": "startingPrice",
          "type": "uint256"
        },
        {
          "indexed": false,
          "internalType": "uint256",
          "name": "auctionEndTime",
          "type": "uint256"
        }
      ],
      "name": "AuctionStarted",
      "type": "event"
    },
    {
      "anonymous": false,
      "inputs": [
        {
          "indexed": false,
          "internalType": "uint256",
          "name": "propertyId",
          "type": "uint256"
        },
        {
          "indexed": false,
          "internalType": "address",
          "name": "winner",
          "type": "address"
        }
      ],
      "name": "AuctionStopped",
      "type": "event"
    },
    {
      "anonymous": false,
      "inputs": [
        {
          "indexed": false,
          "internalType": "uint256",
          "name": "propertyId",
          "type": "uint256"
        },
        {
          "indexed": false,
          "internalType": "address",
          "name": "bidder",
          "type": "address"
        },
        {
          "indexed": false,
          "internalType": "string",
          "name": "errorMessage",
          "type": "string"
        }
      ],
      "name": "BidError",
      "type": "event"
    },
    {
      "anonymous": false,
      "inputs": [
        {
          "indexed": false,
          "internalType": "uint256",
          "name": "propertyId",
          "type": "uint256"
        },
        {
          "indexed": false,
          "internalType": "address",
          "name": "bidder",
          "type": "address"
        },
        {
          "indexed": false,
          "internalType": "uint256",
          "name": "refundedAmount",
          "type": "uint256"
        }
      ],
      "name": "BidRefunded",
      "type": "event"
    },
    {
      "anonymous": false,
      "inputs": [
        {
          "indexed": false,
          "internalType": "uint256",
          "name": "propertyPrice",
          "type": "uint256"
        },
        {
          "indexed": false,
          "internalType": "uint256",
          "name": "msgValue",
          "type": "uint256"
        },
        {
          "indexed": false,
          "internalType": "address",
          "name": "owner",
          "type": "address"
        }
      ],
      "name": "DebugInfo",
      "type": "event"
    },
    {
      "anonymous": false,
      "inputs": [
        {
          "indexed": false,
          "internalType": "uint256",
          "name": "propertyId",
          "type": "uint256"
        },
        {
          "indexed": false,
          "internalType": "address",
          "name": "bidder",
          "type": "address"
        },
        {
          "indexed": false,
          "internalType": "uint256",
          "name": "amount",
          "type": "uint256"
        }
      ],
      "name": "NewHighestBid",
      "type": "event"
    },
    {
      "anonymous": false,
      "inputs": [
        {
          "indexed": false,
          "internalType": "uint256",
          "name": "propertyId",
          "type": "uint256"
        },
        {
          "indexed": false,
          "internalType": "address",
          "name": "from",
          "type": "address"
        },
        {
          "indexed": false,
          "internalType": "address",
          "name": "to",
          "type": "address"
        }
      ],
      "name": "OwnershipTransferred",
      "type": "event"
    },
    {
      "anonymous": false,
      "inputs": [
        {
          "indexed": false,
          "internalType": "uint256",
          "name": "propertyId",
          "type": "uint256"
        },
        {
          "indexed": false,
          "internalType": "address",
          "name": "buyer",
          "type": "address"
        },
        {
          "indexed": false,
          "internalType": "uint256",
          "name": "amount",
          "type": "uint256"
        }
      ],
      "name": "PaymentReceived",
      "type": "event"
    },
    {
      "anonymous": false,
      "inputs": [
        {
          "indexed": false,
          "internalType": "uint256",
          "name": "propertyId",
          "type": "uint256"
        },
        {
          "indexed": false,
          "internalType": "uint256",
          "name": "newPrice",
          "type": "uint256"
        }
      ],
      "name": "PriceChanged",
      "type": "event"
    },
    {
      "anonymous": false,
      "inputs": [
        {
          "indexed": false,
          "internalType": "uint256",
          "name": "propertyId",
          "type": "uint256"
        },
        {
          "indexed": false,
          "internalType": "address",
          "name": "owner",
          "type": "address"
        },
        {
          "indexed": false,
          "internalType": "uint256",
          "name": "price",
          "type": "uint256"
        }
      ],
      "name": "PropertyListed",
      "type": "event"
    },
    {
      "inputs": [
        {
          "internalType": "uint256",
          "name": "",
          "type": "uint256"
        }
      ],
      "name": "highestBid",
      "outputs": [
        {
          "internalType": "uint256",
          "name": "",
          "type": "uint256"
        }
      ],
      "stateMutability": "view",
      "type": "function",
      "constant": true
    },
    {
      "inputs": [
        {
          "internalType": "uint256",
          "name": "",
          "type": "uint256"
        }
      ],
      "name": "highestBidder",
      "outputs": [
        {
          "internalType": "address",
          "name": "",
          "type": "address"
        }
      ],
      "stateMutability": "view",
      "type": "function",
      "constant": true
    },
    {
      "inputs": [
        {
          "internalType": "uint256",
          "name": "",
          "type": "uint256"
        }
      ],
      "name": "properties",
      "outputs": [
        {
          "internalType": "uint256",
          "name": "id",
          "type": "uint256"
        },
        {
          "internalType": "address",
          "name": "owner",
          "type": "address"
        },
        {
          "internalType": "uint256",
          "name": "price",
          "type": "uint256"
        },
        {
          "internalType": "bool",
          "name": "isListed",
          "type": "bool"
        },
        {
          "internalType": "bool",
          "name": "isAuctionStarted",
          "type": "bool"
        },
        {
          "internalType": "uint256",
          "name": "auctionEndTime",
          "type": "uint256"
        },
        {
          "internalType": "address",
          "name": "highestBidder",
          "type": "address"
        },
        {
          "internalType": "uint256",
          "name": "highestBid",
          "type": "uint256"
        }
      ],
      "stateMutability": "view",
      "type": "function",
      "constant": true
    },
    {
      "inputs": [
        {
          "internalType": "uint256",
          "name": "",
          "type": "uint256"
        },
        {
          "internalType": "uint256",
          "name": "",
          "type": "uint256"
        }
      ],
      "name": "propertyBids",
      "outputs": [
        {
          "internalType": "uint256",
          "name": "",
          "type": "uint256"
        }
      ],
      "stateMutability": "view",
      "type": "function",
      "constant": true
    },
    {
      "inputs": [],
      "name": "propertyCounter",
      "outputs": [
        {
          "internalType": "uint256",
          "name": "",
          "type": "uint256"
        }
      ],
      "stateMutability": "view",
      "type": "function",
      "constant": true
    },
    {
      "inputs": [
        {
          "internalType": "uint256",
          "name": "_price",
          "type": "uint256"
        }
      ],
      "name": "listProperty",
      "outputs": [],
      "stateMutability": "nonpayable",
      "type": "function"
    },
    {
      "inputs": [
        {
          "internalType": "uint256",
          "name": "_propertyId",
          "type": "uint256"
        },
        {
          "internalType": "uint256",
          "name": "_propertyPrice",
          "type": "uint256"
        }
      ],
      "name": "buyProperty",
      "outputs": [],
      "stateMutability": "payable",
      "type": "function",
      "payable": true
    },
    {
      "inputs": [],
      "name": "getPropertyCount",
      "outputs": [
        {
          "internalType": "uint256",
          "name": "",
          "type": "uint256"
        }
      ],
      "stateMutability": "view",
      "type": "function",
      "constant": true
    },
    {
      "inputs": [
        {
          "internalType": "uint256",
          "name": "_id",
          "type": "uint256"
        }
      ],
      "name": "getProperty",
      "outputs": [
        {
          "components": [
            {
              "internalType": "uint256",
              "name": "id",
              "type": "uint256"
            },
            {
              "internalType": "address",
              "name": "owner",
              "type": "address"
            },
            {
              "internalType": "uint256",
              "name": "price",
              "type": "uint256"
            },
            {
              "internalType": "bool",
              "name": "isListed",
              "type": "bool"
            },
            {
              "internalType": "bool",
              "name": "isAuctionStarted",
              "type": "bool"
            },
            {
              "internalType": "uint256",
              "name": "auctionEndTime",
              "type": "uint256"
            },
            {
              "internalType": "address",
              "name": "highestBidder",
              "type": "address"
            },
            {
              "internalType": "uint256",
              "name": "highestBid",
              "type": "uint256"
            }
          ],
          "internalType": "struct EasyPropertyDeals.Property",
          "name": "",
          "type": "tuple"
        }
      ],
      "stateMutability": "view",
      "type": "function",
      "constant": true
    },
    {
      "inputs": [
        {
          "internalType": "uint256",
          "name": "_propertyId",
          "type": "uint256"
        },
        {
          "internalType": "uint256",
          "name": "_newPrice",
          "type": "uint256"
        }
      ],
      "name": "changePrice",
      "outputs": [],
      "stateMutability": "nonpayable",
      "type": "function"
    },
    {
      "inputs": [
        {
          "internalType": "uint256",
          "name": "_propertyId",
          "type": "uint256"
        },
        {
          "internalType": "uint256",
          "name": "_startingPrice",
          "type": "uint256"
        },
        {
          "internalType": "uint256",
          "name": "_duration",
          "type": "uint256"
        }
      ],
      "name": "startAuction",
      "outputs": [],
      "stateMutability": "nonpayable",
      "type": "function"
    },
    {
      "inputs": [
        {
          "internalType": "uint256",
          "name": "_propertyId",
          "type": "uint256"
        },
        {
          "internalType": "uint256",
          "name": "_bidPrice",
          "type": "uint256"
        }
      ],
      "name": "bid",
      "outputs": [],
      "stateMutability": "payable",
      "type": "function",
      "payable": true
    },
    {
      "inputs": [
        {
          "internalType": "uint256",
          "name": "_propertyId",
          "type": "uint256"
        },
        {
          "internalType": "uint256",
          "name": "_bidPrice",
          "type": "uint256"
        }
      ],
      "name": "validateBid",
      "outputs": [],
      "stateMutability": "view",
      "type": "function",
      "constant": true
    },
    {
      "inputs": [
        {
          "internalType": "uint256",
          "name": "_propertyId",
          "type": "uint256"
        }
      ],
      "name": "refundPreviousBid",
      "outputs": [],
      "stateMutability": "nonpayable",
      "type": "function"
    },
    {
      "inputs": [
        {
          "internalType": "uint256",
          "name": "_propertyId",
          "type": "uint256"
        }
      ],
      "name": "stopAuction",
      "outputs": [],
      "stateMutability": "nonpayable",
      "type": "function"
    }
  ],
  "bytecode": "0x60806040526000805534801561001457600080fd5b506126e4806100246000396000f3fe6080604052600436106100e85760003560e01c8063a772c9271161008a578063d090e47e11610059578063d090e47e146102e8578063e1031f5f14610313578063f510f6ae1461033c578063f7b1080814610365576100e8565b8063a772c9271461023d578063b14c63c514610259578063b3de019c14610296578063b6aee1cf146102bf576100e8565b8063598647f8116100c6578063598647f8146101905780637326b901146101ac57806385e32cb1146101d757806391e078bb14610214576100e8565b806332665ffb146100ed578063451df52e1461012a5780634552192314610167575b600080fd5b3480156100f957600080fd5b50610114600480360381019061010f9190611826565b6103a9565b60405161012191906121fc565b60405180910390f35b34801561013657600080fd5b50610151600480360381019061014c9190611826565b6104e1565b60405161015e9190611fbf565b60405180910390f35b34801561017357600080fd5b5061018e6004803603810190610189919061184f565b610514565b005b6101aa60048036038101906101a5919061184f565b610618565b005b3480156101b857600080fd5b506101c1610ace565b6040516101ce9190612218565b60405180910390f35b3480156101e357600080fd5b506101fe60048036038101906101f9919061184f565b610ad7565b60405161020b9190612218565b60405180910390f35b34801561022057600080fd5b5061023b6004803603810190610236919061188b565b610b08565b005b6102576004803603810190610252919061184f565b610d2f565b005b34801561026557600080fd5b50610280600480360381019061027b9190611826565b611036565b60405161028d9190612218565b60405180910390f35b3480156102a257600080fd5b506102bd60048036038101906102b8919061184f565b61104e565b005b3480156102cb57600080fd5b506102e660048036038101906102e19190611826565b6111f4565b005b3480156102f457600080fd5b506102fd61140c565b60405161030a9190612218565b60405180910390f35b34801561031f57600080fd5b5061033a60048036038101906103359190611826565b611412565b005b34801561034857600080fd5b50610363600480360381019061035e9190611826565b611512565b005b34801561037157600080fd5b5061038c60048036038101906103879190611826565b6116fa565b6040516103a0989796959493929190612380565b60405180910390f35b6103b161179c565b6001600083815260200190815260200160002060405180610100016040529081600082015481526020016001820160009054906101000a900473ffffffffffffffffffffffffffffffffffffffff1673ffffffffffffffffffffffffffffffffffffffff1673ffffffffffffffffffffffffffffffffffffffff168152602001600282015481526020016003820160009054906101000a900460ff161515151581526020016003820160019054906101000a900460ff16151515158152602001600482015481526020016005820160009054906101000a900473ffffffffffffffffffffffffffffffffffffffff1673ffffffffffffffffffffffffffffffffffffffff1673ffffffffffffffffffffffffffffffffffffffff1681526020016006820154815250509050919050565b60036020528060005260406000206000915054906101000a900473ffffffffffffffffffffffffffffffffffffffff1681565b60006001600084815260200190815260200160002090508060010160009054906101000a900473ffffffffffffffffffffffffffffffffffffffff1673ffffffffffffffffffffffffffffffffffffffff163373ffffffffffffffffffffffffffffffffffffffff1614156105be576040517f08c379a00000000000000000000000000000000000000000000000000000000081526004016105b59061201c565b60405180910390fd5b60046000848152602001908152602001600020548211610613576040517f08c379a000000000000000000000000000000000000000000000000000000000815260040161060a9061215c565b60405180910390fd5b505050565b816001600082815260200190815260200160002060030160019054906101000a900460ff1661067c576040517f08c379a0000000000000000000000000000000000000000000000000000000008152600401610673906120dc565b60405180910390fd5b8260016000828152602001908152602001600020600401544211156106d6576040517f08c379a00000000000000000000000000000000000000000000000000000000081526004016106cd9061211c565b60405180910390fd5b60006001600086815260200190815260200160002090503073ffffffffffffffffffffffffffffffffffffffff16634552192386866040518363ffffffff1660e01b81526004016107289291906123fe565b60006040518083038186803b15801561074057600080fd5b505afa925050508015610751575060015b6108545761075d6125e1565b8061076857506107e0565b7faf677669330dcea821e9029d54f6a1230ce0d8e97c21159d52e4ca2e4ea8433086338360405161079b93929190612293565b60405180910390a1806040517f08c379a00000000000000000000000000000000000000000000000000000000081526004016107d79190611fda565b60405180910390fd5b7faf677669330dcea821e9029d54f6a1230ce0d8e97c21159d52e4ca2e4ea8433085336040516108119291906122d1565b60405180910390a16040517f08c379a000000000000000000000000000000000000000000000000000000000815260040161084b90611ffc565b60405180910390fd5b600073ffffffffffffffffffffffffffffffffffffffff166003600087815260200190815260200160002060009054906101000a900473ffffffffffffffffffffffffffffffffffffffff1673ffffffffffffffffffffffffffffffffffffffff16146109cb573073ffffffffffffffffffffffffffffffffffffffff1663e1031f5f866040518263ffffffff1660e01b81526004016108f49190612218565b600060405180830381600087803b15801561090e57600080fd5b505af192505050801561091f575060015b6109ca577faf677669330dcea821e9029d54f6a1230ce0d8e97c21159d52e4ca2e4ea84330856003600088815260200190815260200160002060009054906101000a900473ffffffffffffffffffffffffffffffffffffffff1660405161098792919061230d565b60405180910390a16040517f08c379a00000000000000000000000000000000000000000000000000000000081526004016109c19061219c565b60405180910390fd5b5b60026000868152602001908152602001600020849080600181540180825580915050600190039060005260206000200160009091909190915055336003600087815260200190815260200160002060006101000a81548173ffffffffffffffffffffffffffffffffffffffff021916908373ffffffffffffffffffffffffffffffffffffffff16021790555083600460008781526020019081526020016000208190555060008160030160006101000a81548160ff0219169083151502179055507ff13cb67d4c8841d2c893b242b7d61382d8e3bb53c5c58a8584106e74e8c4721b853386604051610abf93929190612349565b60405180910390a15050505050565b60008054905090565b60026020528160005260406000208181548110610af357600080fd5b90600052602060002001600091509150505481565b823373ffffffffffffffffffffffffffffffffffffffff166001600083815260200190815260200160002060010160009054906101000a900473ffffffffffffffffffffffffffffffffffffffff1673ffffffffffffffffffffffffffffffffffffffff1614610bad576040517f08c379a0000000000000000000000000000000000000000000000000000000008152600401610ba4906120fc565b60405180910390fd5b836001600082815260200190815260200160002060030160009054906101000a900460ff16610c11576040517f08c379a0000000000000000000000000000000000000000000000000000000008152600401610c08906121bc565b60405180910390fd5b60008411610c54576040517f08c379a0000000000000000000000000000000000000000000000000000000008152600401610c4b906121dc565b60405180910390fd5b60008311610c97576040517f08c379a0000000000000000000000000000000000000000000000000000000008152600401610c8e9061213c565b60405180910390fd5b600060016000878152602001908152602001600020905060018160030160016101000a81548160ff0219169083151502179055508481600201819055508342610ce0919061247a565b81600401819055507f44c53be110c6aa83aa83cd02e351ed172359268272ee1b5d31c0fe48db35c6c786868360040154604051610d1f93929190612427565b60405180910390a1505050505050565b816001600082815260200190815260200160002060030160009054906101000a900460ff16610d93576040517f08c379a0000000000000000000000000000000000000000000000000000000008152600401610d8a906121bc565b60405180910390fd5b60006001600085815260200190815260200160002090508060010160009054906101000a900473ffffffffffffffffffffffffffffffffffffffff1673ffffffffffffffffffffffffffffffffffffffff163373ffffffffffffffffffffffffffffffffffffffff161415610e3d576040517f08c379a0000000000000000000000000000000000000000000000000000000008152600401610e349061205c565b60405180910390fd5b828314610e7f576040517f08c379a0000000000000000000000000000000000000000000000000000000008152600401610e769061203c565b60405180910390fd5b80600201548314610ec5576040517f08c379a0000000000000000000000000000000000000000000000000000000008152600401610ebc9061209c565b60405180910390fd5b8060010160009054906101000a900473ffffffffffffffffffffffffffffffffffffffff1673ffffffffffffffffffffffffffffffffffffffff166108fc349081150290604051600060405180830381858888f19350505050158015610f2f573d6000803e3d6000fd5b5060008160010160009054906101000a900473ffffffffffffffffffffffffffffffffffffffff169050338260010160006101000a81548173ffffffffffffffffffffffffffffffffffffffff021916908373ffffffffffffffffffffffffffffffffffffffff16021790555060008260030160006101000a81548160ff0219169083151502179055507f4d3f6d68b42e1e039d6e7323b2b8bdeaf223f453882ce17a5984f4d6aabbdb33853334604051610fec93929190612349565b60405180910390a17f16b85f49bf01212961345d3016c9a531894accf62eb7680f2045d79185cc0ec08582336040516110279392919061225c565b60405180910390a15050505050565b60046020528060005260406000206000915090505481565b813373ffffffffffffffffffffffffffffffffffffffff166001600083815260200190815260200160002060010160009054906101000a900473ffffffffffffffffffffffffffffffffffffffff1673ffffffffffffffffffffffffffffffffffffffff16146110f3576040517f08c379a00000000000000000000000000000000000000000000000000000000081526004016110ea906120fc565b60405180910390fd5b826001600082815260200190815260200160002060030160009054906101000a900460ff16611157576040517f08c379a000000000000000000000000000000000000000000000000000000000815260040161114e906121bc565b60405180910390fd5b6000831161119a576040517f08c379a00000000000000000000000000000000000000000000000000000000081526004016111919061207c565b60405180910390fd5b8260016000868152602001908152602001600020600201819055507f8aa4fa52648a6d15edce8a179c792c86f3719d0cc3c572cf90f91948f0f2cb6884846040516111e69291906123fe565b60405180910390a150505050565b60008111611237576040517f08c379a000000000000000000000000000000000000000000000000000000000815260040161122e9061207c565b60405180910390fd5b6000808154809291906112499061254b565b919050555060405180610100016040528060005481526020013373ffffffffffffffffffffffffffffffffffffffff16815260200182815260200160011515815260200160001515815260200160008152602001600073ffffffffffffffffffffffffffffffffffffffff168152602001600081525060016000805481526020019081526020016000206000820151816000015560208201518160010160006101000a81548173ffffffffffffffffffffffffffffffffffffffff021916908373ffffffffffffffffffffffffffffffffffffffff1602179055506040820151816002015560608201518160030160006101000a81548160ff02191690831515021790555060808201518160030160016101000a81548160ff02191690831515021790555060a0820151816004015560c08201518160050160006101000a81548173ffffffffffffffffffffffffffffffffffffffff021916908373ffffffffffffffffffffffffffffffffffffffff16021790555060e082015181600601559050507f23fb658c1698b92f5fe511a079c17ecf7965cbc3f1b873328c67e2c3c0820f1f600054338360405161140193929190612349565b60405180910390a150565b60005481565b60006003600083815260200190815260200160002060009054906101000a900473ffffffffffffffffffffffffffffffffffffffff169050600060046000848152602001908152602001600020549050600073ffffffffffffffffffffffffffffffffffffffff168273ffffffffffffffffffffffffffffffffffffffff1614156114d2576040517f08c379a00000000000000000000000000000000000000000000000000000000081526004016114c9906120bc565b60405180910390fd5b7fa59312996dc68b7f0224b341fed75d5afeb3bb20624107d37942d14f5942815683838360405161150593929190612349565b60405180910390a1505050565b60006001600083815260200190815260200160002090508060010160009054906101000a900473ffffffffffffffffffffffffffffffffffffffff1673ffffffffffffffffffffffffffffffffffffffff163373ffffffffffffffffffffffffffffffffffffffff1614806115e557506003600083815260200190815260200160002060009054906101000a900473ffffffffffffffffffffffffffffffffffffffff1673ffffffffffffffffffffffffffffffffffffffff163373ffffffffffffffffffffffffffffffffffffffff16145b611624576040517f08c379a000000000000000000000000000000000000000000000000000000000815260040161161b9061217c565b60405180910390fd5b60006003600084815260200190815260200160002060009054906101000a900473ffffffffffffffffffffffffffffffffffffffff169050808260010160006101000a81548173ffffffffffffffffffffffffffffffffffffffff021916908373ffffffffffffffffffffffffffffffffffffffff16021790555060008260030160016101000a81548160ff0219169083151502179055507f32ca2cffcc09e55beb72f2d2f8058a14731c3b3aa9a3cb1510f868a07810609d83826040516116ed929190612233565b60405180910390a1505050565b60016020528060005260406000206000915090508060000154908060010160009054906101000a900473ffffffffffffffffffffffffffffffffffffffff16908060020154908060030160009054906101000a900460ff16908060030160019054906101000a900460ff16908060040154908060050160009054906101000a900473ffffffffffffffffffffffffffffffffffffffff16908060060154905088565b60405180610100016040528060008152602001600073ffffffffffffffffffffffffffffffffffffffff1681526020016000815260200160001515815260200160001515815260200160008152602001600073ffffffffffffffffffffffffffffffffffffffff168152602001600081525090565b60008135905061182081612697565b92915050565b60006020828403121561183857600080fd5b600061184684828501611811565b91505092915050565b6000806040838503121561186257600080fd5b600061187085828601611811565b925050602061188185828601611811565b9150509250929050565b6000806000606084860312156118a057600080fd5b60006118ae86828701611811565b93505060206118bf86828701611811565b92505060406118d086828701611811565b9150509250925092565b6118e3816124d0565b82525050565b6118f2816124d0565b82525050565b611901816124e2565b82525050565b611910816124e2565b82525050565b60006119218261245e565b61192b8185612469565b935061193b818560208601612518565b611944816125c3565b840191505092915050565b600061195c600d83612469565b91507f556e6b6e6f776e206572726f72000000000000000000000000000000000000006000830152602082019050919050565b600061199c601883612469565b91507f4f776e65722063616e6e6f7420706c61636520612062696400000000000000006000830152602082019050919050565b60006119dc602c83612469565b91507f53656e742076616c756520646f6573206e6f74206d617463682074686520707260008301527f6f706572747920707269636500000000000000000000000000000000000000006020830152604082019050919050565b6000611a42602383612469565b91507f4f776e65722063616e6e6f7420627579207468656972206f776e2070726f706560008301527f72747900000000000000000000000000000000000000000000000000000000006020830152604082019050919050565b6000611aa8601f83612469565b91507f5072696365206d7573742062652067726561746572207468616e207a65726f006000830152602082019050919050565b6000611ae8602183612469565b91507f496e636f72726563742070726f70657274792070726963652070726f7669646560008301527f64000000000000000000000000000000000000000000000000000000000000006020830152604082019050919050565b6000611b4e601c83612469565b91507f4e6f2070726576696f75732062696464657220746f20726566756e64000000006000830152602082019050919050565b6000611b8e601f83612469565b91507f50726f7065727479206973206e6f7420696e2061756374696f6e206d6f6465006000830152602082019050919050565b6000611bce601683612469565b91507f4e6f74207468652070726f7065727479206f776e6572000000000000000000006000830152602082019050919050565b6000611c0e601183612469565b91507f41756374696f6e2068617320656e6465640000000000000000000000000000006000830152602082019050919050565b6000611c4e602c83612469565b91507f556e6b6e6f776e206572726f72206f6363757272656420647572696e6720626960008301527f642076616c69646174696f6e00000000000000000000000000000000000000006020830152604082019050919050565b6000611cb4600d83612469565b91507f526566756e64206661696c6564000000000000000000000000000000000000006000830152602082019050919050565b6000611cf4602a83612469565b91507f41756374696f6e206475726174696f6e206d757374206265206772656174657260008301527f207468616e207a65726f000000000000000000000000000000000000000000006020830152604082019050919050565b6000611d5a602f83612469565b91507f426964206d75737420626520686967686572207468616e20746865206375727260008301527f656e7420686967686573742062696400000000000000000000000000000000006020830152604082019050919050565b6000611dc0603183612469565b91507f4f6e6c79206f776e6572206f722068696768657374206269646465722063616e60008301527f2073746f70207468652061756374696f6e0000000000000000000000000000006020830152604082019050919050565b6000611e26602083612469565b91507f4661696c656420746f20726566756e642070726576696f7573206269646465726000830152602082019050919050565b6000611e66601683612469565b91507f50726f7065727479206973206e6f74206c6973746564000000000000000000006000830152602082019050919050565b6000611ea6602883612469565b91507f5374617274696e67207072696365206d7573742062652067726561746572207460008301527f68616e207a65726f0000000000000000000000000000000000000000000000006020830152604082019050919050565b61010082016000820151611f166000850182611fa1565b506020820151611f2960208501826118da565b506040820151611f3c6040850182611fa1565b506060820151611f4f60608501826118f8565b506080820151611f6260808501826118f8565b5060a0820151611f7560a0850182611fa1565b5060c0820151611f8860c08501826118da565b5060e0820151611f9b60e0850182611fa1565b50505050565b611faa8161250e565b82525050565b611fb98161250e565b82525050565b6000602082019050611fd460008301846118e9565b92915050565b60006020820190508181036000830152611ff48184611916565b905092915050565b600060208201905081810360008301526120158161194f565b9050919050565b600060208201905081810360008301526120358161198f565b9050919050565b60006020820190508181036000830152612055816119cf565b9050919050565b6000602082019050818103600083015261207581611a35565b9050919050565b6000602082019050818103600083015261209581611a9b565b9050919050565b600060208201905081810360008301526120b581611adb565b9050919050565b600060208201905081810360008301526120d581611b41565b9050919050565b600060208201905081810360008301526120f581611b81565b9050919050565b6000602082019050818103600083015261211581611bc1565b9050919050565b6000602082019050818103600083015261213581611c01565b9050919050565b6000602082019050818103600083015261215581611ce7565b9050919050565b6000602082019050818103600083015261217581611d4d565b9050919050565b6000602082019050818103600083015261219581611db3565b9050919050565b600060208201905081810360008301526121b581611e19565b9050919050565b600060208201905081810360008301526121d581611e59565b9050919050565b600060208201905081810360008301526121f581611e99565b9050919050565b6000610100820190506122126000830184611eff565b92915050565b600060208201905061222d6000830184611fb0565b92915050565b60006040820190506122486000830185611fb0565b61225560208301846118e9565b9392505050565b60006060820190506122716000830186611fb0565b61227e60208301856118e9565b61228b60408301846118e9565b949350505050565b60006060820190506122a86000830186611fb0565b6122b560208301856118e9565b81810360408301526122c78184611916565b9050949350505050565b60006060820190506122e66000830185611fb0565b6122f360208301846118e9565b818103604083015261230481611c41565b90509392505050565b60006060820190506123226000830185611fb0565b61232f60208301846118e9565b818103604083015261234081611ca7565b90509392505050565b600060608201905061235e6000830186611fb0565b61236b60208301856118e9565b6123786040830184611fb0565b949350505050565b600061010082019050612396600083018b611fb0565b6123a3602083018a6118e9565b6123b06040830189611fb0565b6123bd6060830188611907565b6123ca6080830187611907565b6123d760a0830186611fb0565b6123e460c08301856118e9565b6123f160e0830184611fb0565b9998505050505050505050565b60006040820190506124136000830185611fb0565b6124206020830184611fb0565b9392505050565b600060608201905061243c6000830186611fb0565b6124496020830185611fb0565b6124566040830184611fb0565b949350505050565b600081519050919050565b600082825260208201905092915050565b60006124858261250e565b91506124908361250e565b9250827fffffffffffffffffffffffffffffffffffffffffffffffffffffffffffffffff038211156124c5576124c4612594565b5b828201905092915050565b60006124db826124ee565b9050919050565b60008115159050919050565b600073ffffffffffffffffffffffffffffffffffffffff82169050919050565b6000819050919050565b60005b8381101561253657808201518184015260208101905061251b565b83811115612545576000848401525b50505050565b60006125568261250e565b91507fffffffffffffffffffffffffffffffffffffffffffffffffffffffffffffffff82141561258957612588612594565b5b600182019050919050565b7f4e487b7100000000000000000000000000000000000000000000000000000000600052601160045260246000fd5b6000601f19601f8301169050919050565b60008160e01c9050919050565b600060443d10156125f157612694565b60046000803e6126026000516125d4565b6308c379a081146126135750612694565b60405160043d036004823e80513d602482011167ffffffffffffffff8211171561263f57505050612694565b808201805167ffffffffffffffff81111561265e575050505050612694565b8060208301013d850181111561267957505050505050612694565b612682826125c3565b60208401016040528296505050505050505b90565b6126a08161250e565b81146126ab57600080fd5b5056fea26469706673582212207edc0fc5aa90a0449fe8e0400fb7ccf32a6263a808bb593161fd046e548a3f2564736f6c63430008000033",
  "immutableReferences": {},
  "source": "// SPDX-License-Identifier: MIT\r\npragma solidity ^0.8.0;\r\n\r\ncontract EasyPropertyDeals {\r\n    // Property struct, full details of property that we throtughoutly fetch in all the functions in contract, \r\n    // and mappings in frontend\r\n\r\n    struct Property {\r\n        uint256 id;\r\n        address owner;\r\n        uint256 price;\r\n        bool isListed;\r\n        bool isAuctionStarted;\r\n        uint256 auctionEndTime;\r\n        address highestBidder;\r\n        uint256 highestBid;\r\n    }\r\n\r\n    uint256 public propertyCounter = 0;\r\n\r\n    mapping(uint256 => Property) public properties;\r\n\r\n    //these events are emitted after proper execution of function\r\n    event PropertyListed(uint256 propertyId, address owner, uint256 price);\r\n    event PaymentReceived(uint256 propertyId, address buyer, uint256 amount);\r\n    event OwnershipTransferred(uint256 propertyId, address from, address to);\r\n    event PriceChanged(uint256 propertyId, uint256 newPrice);\r\n    event AuctionStarted(\r\n        uint256 propertyId,\r\n        uint256 startingPrice,\r\n        uint256 auctionEndTime\r\n    );\r\n    event NewHighestBid(uint256 propertyId, address bidder, uint256 amount);\r\n    event AuctionStopped(uint256 propertyId, address winner);\r\n\r\n    // modifiers that are used in granting and restricting access, or validating inputs \r\n    modifier onlyOwner(uint256 _propertyId) {\r\n        require(\r\n            properties[_propertyId].owner == msg.sender,\r\n            \"Not the property owner\"\r\n        );\r\n        _;\r\n    }\r\n\r\n    modifier isListed(uint256 _propertyId) {\r\n        require(properties[_propertyId].isListed, \"Property is not listed\");\r\n        _;\r\n    }\r\n\r\n    modifier validPayment(uint256 _propertyId) {\r\n        uint256 price = properties[_propertyId].price;\r\n\r\n        require(msg.value >= price, \"Insufficient payment amount \");\r\n        require(msg.value <= price, \"Overpayment not allowed\");\r\n        _;\r\n    }\r\n\r\n    modifier isAuctionStarted(uint256 _propertyId) {\r\n        require(\r\n            properties[_propertyId].isAuctionStarted,\r\n            \"Property is not in auction mode\"\r\n        );\r\n        _;\r\n    }\r\n\r\n    modifier auctionActive(uint256 _propertyId) {\r\n        require(\r\n            block.timestamp <= properties[_propertyId].auctionEndTime,\r\n            \"Auction has ended\"\r\n        );\r\n        _;\r\n    }\r\n\r\n    modifier auctionEnded(uint256 _propertyId) {\r\n        require(\r\n            block.timestamp > properties[_propertyId].auctionEndTime,\r\n            \"Auction is still active\"\r\n        );\r\n        _;\r\n    }\r\n\r\n    /// @dev Function to list a property for sale, that takes property price and add one property in properties mapping \r\n    function listProperty(uint256 _price) public {\r\n        require(_price > 0, \"Price must be greater than zero\");\r\n\r\n        propertyCounter++;\r\n        properties[propertyCounter] = Property({\r\n            id: propertyCounter,\r\n            owner: msg.sender,\r\n            price: _price,\r\n            isListed: true,\r\n            isAuctionStarted: false,\r\n            auctionEndTime: 0,\r\n            highestBidder: address(0),\r\n            highestBid: 0\r\n        });\r\n\r\n        emit PropertyListed(propertyCounter, msg.sender, _price);\r\n    }\r\n\r\n    /// @dev Function to buy a listed property\r\n    function buyProperty(\r\n        uint256 _propertyId,\r\n        uint256 _propertyPrice\r\n    ) public payable isListed(_propertyId) {\r\n        Property storage property = properties[_propertyId];\r\n        require(\r\n            msg.sender != property.owner,\r\n            \"Owner cannot buy their own property\"\r\n        );\r\n        require(\r\n            _propertyPrice == _propertyPrice,\r\n            \"Sent value does not match the property price\"\r\n        );\r\n        require(\r\n            _propertyPrice == property.price,\r\n            \"Incorrect property price provided\"\r\n        );\r\n        // Transfer funds to the property owner\r\n        payable(property.owner).transfer(msg.value);\r\n\r\n        // Transfer ownership to the buyer and delist the property\r\n        address previousOwner = property.owner;\r\n        property.owner = msg.sender;\r\n        property.isListed = false;\r\n\r\n        // Emit necessary events\r\n        emit PaymentReceived(_propertyId, msg.sender, msg.value);\r\n        emit OwnershipTransferred(_propertyId, previousOwner, msg.sender);\r\n    }\r\n\r\n    function getPropertyCount() public view returns (uint256) {\r\n        return propertyCounter;\r\n    }\r\n\r\n    //getter function to get property details fetch by ID\r\n    function getProperty(uint256 _id) public view returns (Property memory) {\r\n    return properties[_id];\r\n}\r\n\r\n\r\n    event DebugInfo(uint256 propertyPrice, uint256 msgValue, address owner);\r\n\r\n    /// @dev Function to change the price of a listed property (By the owner only)\r\n    function changePrice(\r\n        uint256 _propertyId,\r\n        uint256 _newPrice\r\n    ) public onlyOwner(_propertyId) isListed(_propertyId) {\r\n        require(_newPrice > 0, \"Price must be greater than zero\");\r\n\r\n        properties[_propertyId].price = _newPrice;\r\n\r\n        emit PriceChanged(_propertyId, _newPrice);\r\n    }\r\n\r\n    /// @dev Function to start an auction\r\n    function startAuction(\r\n        uint256 _propertyId,\r\n        uint256 _startingPrice,\r\n        uint256 _duration\r\n    ) public onlyOwner(_propertyId) isListed(_propertyId) {\r\n        require(_startingPrice > 0, \"Starting price must be greater than zero\");\r\n        require(_duration > 0, \"Auction duration must be greater than zero\");\r\n\r\n        Property storage property = properties[_propertyId];\r\n        property.isAuctionStarted = true;\r\n        property.price = _startingPrice;\r\n        property.auctionEndTime = block.timestamp + _duration;\r\n\r\n        emit AuctionStarted(\r\n            _propertyId,\r\n            _startingPrice,\r\n            property.auctionEndTime\r\n        );\r\n    }\r\n\r\n    // some mappings that will help us to fetch auction related data of a property\r\n    mapping(uint256 => uint256[]) public propertyBids; // Mapping to store all bid amounts for each property\r\nmapping(uint256 => address) public highestBidder;  // Mapping to store the highest bidder for each property\r\nmapping(uint256 => uint256) public highestBid;     // Mapping to store the highest bid for each property\r\n    event BidRefunded(uint256 propertyId, address bidder, uint256 refundedAmount);\r\n        event BidError(uint256 propertyId, address bidder, string errorMessage);\r\n\r\n// Main bidding function that takes bid price and property ID\r\nfunction bid(uint256 _propertyId, uint256 _bidPrice) public payable \r\n    isAuctionStarted(_propertyId) auctionActive(_propertyId) {\r\n        Property storage property = properties[_propertyId];\r\n\r\n        try this.validateBid(_propertyId, _bidPrice) {\r\n            // Refund the previous highest bidder if applicable\r\n            if (highestBidder[_propertyId] != address(0)) {\r\n                try this.refundPreviousBid(_propertyId) {\r\n                    // Refund successful\r\n                } catch {\r\n                    emit BidError(_propertyId, highestBidder[_propertyId], \"Refund failed\");\r\n                    revert(\"Failed to refund previous bidder\");\r\n                }\r\n            }\r\n\r\n            // Store the new bid in the mapping for this property\r\n            propertyBids[_propertyId].push(_bidPrice);\r\n\r\n            // Then update the highest bidder and highest bid for this property\r\n            highestBidder[_propertyId] = msg.sender;\r\n            highestBid[_propertyId] = _bidPrice;\r\n            property.isListed = false;\r\n\r\n            emit NewHighestBid(_propertyId, msg.sender, _bidPrice);\r\n        } catch Error(string memory reason) {\r\n            emit BidError(_propertyId, msg.sender, reason);\r\n            revert(reason);\r\n        } catch {\r\n            emit BidError(_propertyId, msg.sender, \"Unknown error occurred during bid validation\");\r\n            revert(\"Unknown error\");\r\n        }\r\n    }\r\n\r\n    function validateBid(uint256 _propertyId, uint256 _bidPrice) external view {\r\n        Property storage property = properties[_propertyId];\r\n\r\n        // Ensure the sender is not the owner\r\n        require(msg.sender != property.owner, \"Owner cannot place a bid\");\r\n\r\n        // Ensure the bid is higher than the current highest bid\r\n        require(\r\n            _bidPrice > highestBid[_propertyId],\r\n            \"Bid must be higher than the current highest bid\"\r\n        );\r\n\r\n    }\r\n\r\n    // Refund logic as a separate function\r\nfunction refundPreviousBid(uint256 _propertyId) external {\r\n    address previousBidder = highestBidder[_propertyId];\r\n    uint256 previousBid = highestBid[_propertyId];\r\n\r\n    // Ensure there was a previous bidder\r\n    require(previousBidder != address(0), \"No previous bidder to refund\");\r\n\r\n    // Emit the refund event\r\n    emit BidRefunded(_propertyId, previousBidder, previousBid);\r\n}\r\n\r\n    /// @dev Function to end an auction\r\n    function stopAuction(uint256 _propertyId) public {\r\n    Property storage property = properties[_propertyId];\r\n\r\n    // Ensure only the current owner or the highest bidder can stop the auction\r\n    require(msg.sender == property.owner || msg.sender == highestBidder[_propertyId], \"Only owner or highest bidder can stop the auction\");\r\n\r\n    // Transfer the property to the highest bidder\r\n    address highestBidderAddress = highestBidder[_propertyId];\r\n    property.owner = highestBidderAddress;\r\n\r\n    // Set auction started flag to false\r\n    property.isAuctionStarted = false;\r\n\r\n    emit AuctionStopped(_propertyId, highestBidderAddress); // Emit event to notify about auction stop\r\n    }\r\n}\r\n",
  "sourcePath": "C:\\Users\\khwae\\OneDrive\\Desktop\\CCBC 24-25\\603-Smart Contract\\Project_603\\ganache\\contracts\\EasyPropertyDeals.sol",
  "compiler": {
    "name": "solc",
    "version": "0.8.0+commit.c7dfd78e.Emscripten.clang"
  },
  "schemaVersion": "3.4.16",
  "updatedAt": "2024-12-29T04:21:07.386Z",
  "networkType": "ethereum",
  "devdoc": {
    "kind": "dev",
    "methods": {
      "buyProperty(uint256,uint256)": {
        "details": "Function to buy a listed property"
      },
      "changePrice(uint256,uint256)": {
        "details": "Function to change the price of a listed property (By the owner only)"
      },
      "listProperty(uint256)": {
        "details": "Function to list a property for sale, that takes property price and add one property in properties mapping "
      },
      "startAuction(uint256,uint256,uint256)": {
        "details": "Function to start an auction"
      },
      "stopAuction(uint256)": {
        "details": "Function to end an auction"
      }
    },
    "version": 1
  },
  "userdoc": {
    "kind": "user",
    "methods": {},
    "version": 1
  }
}